:100000000C9434000C9451000C9451000C94510049
:100010000C9451000C9451000C9451000C9451001C
:100020000C9451000C9451000C9451000C9451000C
:100030000C9451000C9451000C9451000C945100FC
:100040000C9451000C9451000C9481090C94A1095A
:100050000C9451000C9451000C9451000C945100DC
:100060000C9451000C94510011241FBECFEFD8E026
:10007000DEBFCDBF11E0A0E0B1E0E0E0F8E102C0FA
:1000800005900D92A830B107D9F721E0A8E0B1E0C2
:1000900001C01D92A73CB207E1F70E9466080C94CC
:1000A000FE0B0C940000CF93C82F0E94D3098EEE54
:1000B0000E94EC098C2F0E94EC090E94D3098FEE5C
:1000C0000E94EC09CF910C94E409CF92DF92EF9259
:1000D000FF920F931F93CF93DF93F82ED62FC72F46
:1000E0008A010E94D3098EEE0E94EC098F2D0E9496
:1000F000EC090E94D3098FEE0E94EC09ED2EFC2E34
:10010000D0E0C0E0680181E0C81AD108CC16DD0655
:1001100091F40E94E409F70181937F0121960C1765
:100120001D07A1F7DF91CF911F910F91FF90EF90E5
:10013000DF90CF9008950E94DC09EDCFCF93DF933D
:1001400000D000D000D00F92CDB7DEB743E050E032
:10015000BE016F5F7F4F0E946500898190E0B0E033
:10016000A0E02CE0880F991FAA1FBB1F2A95D1F78A
:100170004A8150E070E060E034E0440F551F661F94
:10018000771F3A95D1F7842B952BA62BB72B2B8174
:1001900022952F70AC01BD01422BCB01BA012796ED
:1001A0000FB6F894DEBF0FBECDBFDF91CF9108959B
:1001B000CF93DF93CDB7DEB7A8970FB6F894DEBF25
:1001C0000FBECDBF0E94C5091A821982FE01339667
:1001D00086E2DF011D928A95E9F749E150E0BE0110
:1001E0006F5F7F4F88E80E9465004FE050E0BE01DE
:1001F000665E7F4F81EE0E946500E8E0F1E0898154
:1002000080838A8181838B8182838C8183838D81AA
:1002100084838E8185838F81868388858783898582
:1002200080878A8581878B8582878C8583878D856A
:1002300084878E8585878F85868788898787898942
:10024000808B8A89818B8B89828B8C89838B8D892A
:10025000848B8E89858B8F89868B888D878B898D02
:100260009A8DAB8DBC8D808F918FA28FB38F2D8D8A
:10027000B0E12B02900111248E8D982F9F70A9015F
:10028000492B558F448F8595859585958595082EA5
:10029000000C990B822B932B978F868F88A180A3BC
:1002A0000E94D3098EEE0E94EC0984EF0E94EC09B3
:1002B00084E20E94EC090E94D8090E94D3098EEEC4
:1002C0000E94EC0982EF0E94EC0981E00E94EC0997
:1002D000A8960FB6F894DEBF0FBECDBFDF91CF91C9
:1002E0000C94D809CF92DF92EF92FF92CF93DF93D5
:1002F000CDB7DEB728970FB6F894DEBF0FBECDBFDF
:1003000083EF0E94530083FDFBCF8AEF0E949E0083
:1003100069837A838B839C8389819A81AB81BC8139
:1003200081159048A105B105C9F480E690EFAFEFC3
:10033000BFEF89839A83AB83BC8369817A818B8188
:100340009C8128960FB6F894DEBF0FBECDBFDF911B
:10035000CF91FF90EF90DF90CF900895C09008016B
:10036000D090090169817A818B819C8128E030E0FD
:1003700040E050E00E94030AF12CE12CD701C601B5
:10038000880F991FAA1FBB1F281B390B4A0B5B0B39
:10039000A0910A01B0910B010E942D0A6D837E830A
:1003A0008F83988769817A818B819C8120E130E0FD
:1003B00040E050E00E94030ADA01C9018C199D094E
:1003C000AE09BF099C01AD01CD01B9010E94F3093D
:1003D0009B01AC017CE055954795379527957A951B
:1003E000D1F7A0910C01B0910D010E942D0A6983F3
:1003F0007A838B839C836D817E818F81988520E0B9
:1004000038E040E050E00E94030A69017A01698106
:100410007A818B819C8120E030E440E050E00E94B2
:10042000030A2C0D3D1D4E1D5F1D209329013093A5
:100430002A0140932B0150932C01A5E0B0E00E94CB
:10044000220A69837A838B839C83DC01CB018058E9
:100450009F4FAF4FBF4FBC01CD0120E031E040E0E6
:1004600050E00E94030A89819A81AB81BC81813866
:100470009E45A04FBF4F0CF458CF29833A834B833E
:100480005C8389819A81AB81BC8185339142A105CE
:10049000B1050CF452CF84E391E2A0E0B0E049CF83
:1004A0002F923F924F925F926F927F928F929F9284
:1004B000AF92BF92CF92DF92EF92FF920F931F9372
:1004C000CF93DF93CDB7DEB76E970FB6F894DEBF4C
:1004D0000FBECDBF0E9472018091290190912A0127
:1004E000A0912B01B0912C016C017D01FF0CCC0877
:1004F000DC2C76019C01AD016C2D7C2D8C2D9C2D6E
:10050000345F414051096109710981099109922EB5
:10051000832E742E652E562E472E89879A87A22EFB
:10052000B32EC42ED52EE62EF72E8C010E94350A4E
:100530002B873C874D87598B6A8B7B8B8C8B9D8B54
:100540002091100130911101932F990F990B492F90
:10055000592F692F792F892F0E94350A0CE00E94AC
:10056000640B2F8B3E8B342E252E69837E878F87DD
:10057000988B2091120130911301932F990F990BB1
:10058000AB84BC84CD84D988EA88FB880C891D891A
:10059000492F592F692F792F892F0E94350AD22E82
:1005A000E32EF42E052F162FB72FF82FE92FA0E0FA
:1005B0000E94B80B84F421503F4F4F4F5F4F6F4F55
:1005C0007F4F8F4F9F4FD22EE32EF42E052F162FE5
:1005D000B72FF82FE92F2D2D3E2D4F2D502F612FA6
:1005E0007B2F8F2F9E2F08E00E947D0BAF88BE8847
:1005F000C32CD22CE980FE840F8518890E949A0BA7
:1006000070588F4F9F4FE0910E01F0910F015F01E5
:10061000D12CC12CE12CF12C8701E983BA82CB8249
:10062000DC82ED82FE820F831887C12CD12CE12C55
:10063000F12C00E010E00E94350AF22E032F142F57
:100640005E876983B72FF82FE92FA0E00E94B80BCF
:1006500084F421503109410951096E4F7F4F8F4F6A
:100660009F4FF22E032F142F5E876983B72FF82F29
:10067000E92F2F2D302F412F5E8569817B2F8F2F02
:100680009E2F01E20E947D0B2E873F87488B5E8B59
:100690006F8B788F898F9A8FA0E00E94B80B09F436
:1006A00020C2B0901801BB8E20901901C090160195
:1006B000CE8ED0901701DD8EE0901401EC8E30903C
:1006C000150187EF0E949E0069837A838B839C8348
:1006D0009D2D990F990BA92CB82CC72CD62CE52C45
:1006E000F42C09851A852E8D3D8D492F592F692FA0
:1006F000792F892F0E94350A29013A014B018A87F7
:100700009987922D990F990BAB84BC84CD84D9889D
:10071000EA88FB880C891D892B8D322D492F592F92
:10072000692F792F892F0E94350A59016A017B01AF
:100730008C019201A301B4018A8599850E94350A32
:10074000132D110F110BAC8CB32CC12ED12EE12E19
:10075000F12E012F0E94350A29013A014B01F82E92
:10076000E92E80E090E0A0E1B0E009811A812B81C0
:100770003C81801B910BA20BB30B8C019D0140E0CF
:1007800050E0BA011A83AB833C834D835E836F8351
:1007900078879C014B815C8160E070E080E090E0B4
:1007A0000FE10E94640B29873983B42FA52FF62F00
:1007B000E72F1C019201A301B4018F2D9E2D04E3AC
:1007C0000E94640B59016A017B018C0129853981E2
:1007D0004B2F5A2F6F2F7E2FC1010E94AF0B15E3B5
:1007E000A12E0CE0B02EC12CD12CE12CF12C00E07C
:1007F00010E00E94350AAE84BF84C888DE88EF8886
:10080000F88C098D1A8D0E948F0A2F873E872A0146
:100810003B014C01D22EE32EF42E052D162FB72DC1
:10082000F82FE92DA0E00E94B80B84F42150304E3F
:100830004F4F5F4F6F4F7F4F8F4F9F4FD22EE32E03
:10084000F42E052F162FB72FF82FE92F2D2D3E2D23
:100850004F2D502F612F7B2F8F2F9E2F0DE00E9449
:100860007D0B298339874A875B876C877D87292E93
:1008700020911E0130911F01932F990F990BA98090
:10088000B9846A017B01082F122D492F592F692F36
:10089000792F892F0E94350A0E94350AD22EE32E25
:1008A000F42E052F162FB72FF82FE92FA0E00E9466
:1008B000B80B84F42150310941095E4F6F4F7F4FCF
:1008C0008F4F9F4FD22EE32EF42E052F162FB72FCA
:1008D000F82FE92F2D2D3E2D4F2D502F612F7B2FDF
:1008E0008F2F9E2F09E10E947D0BAF84BE84620191
:1008F000730184010E949A0B1901498359876A8701
:100900007B878C879D8720911C0130911D01932F3F
:10091000990F990B492F592F692F792F892F0E94F1
:10092000350AF22E032F142F5F876E87B72FF82F0B
:10093000E92FA0E00E94B80B84F421503109484F00
:100940005F4F6F4F7F4F8F4F9F4FF22E032F142F0C
:100950005F876E87B72FF82FE92F2F2D302F412F6C
:100960005F856E857B2F8F2F9E2F03E10E947D0B6D
:1009700059016A017B018C019101498159856A8580
:100980007B858C859D850E949A0BF22E032F142F58
:1009900059876983B72FF82FE92FA0E00E94B80B81
:1009A00084F421503F4F4F4F5F4F6F4F7F4F8F4F1A
:1009B0009F4FF22E032F142F59876983B72FF82FDB
:1009C000E92F2F2D302F412F598569817B2F8F2FB4
:1009D0009E2F08E00E947D0BA22FF32F6A017B015E
:1009E000E82F192F80901A0190901B01092C000C00
:1009F000AA08BB0824013501770C4408542C3201A5
:100A00009401A501642D742D842D942D04E00E9481
:100A1000640BAA2EBF2E0E2F0E949A0BF22E032FCC
:100A2000142F59876983B72FF82FE92FA0E00E9470
:100A3000B80B5CF4A1E00E94A30BF22E032F142F3D
:100A400059876983B72FF82FE92F2F2D302F412F8A
:100A5000598569817B2F8F2F9E2F01E00E947D0B8E
:100A6000E4E6AE2EB12CC12CD12CE12CF12C00E00F
:100A700010E00E94350AF22E032F142F5987698344
:100A8000B72FF82FE92FA0E00E94B80B5CF4AFE776
:100A90000E94A30BF22E032F142F59876983B72FBF
:100AA000F82FE92F2F2D302F412F598569817B2F6A
:100AB0008F2F9E2F07E00E947D0BB901CA01613C78
:100AC00018ED710717EA8107910520F060EC78EDC9
:100AD00087EA90E0603C26EC72072DE282079105E0
:100AE00020F460EC76EC8DE290E06E960FB6F89410
:100AF000DEBF0FBECDBFDF91CF911F910F91FF9051
:100B0000EF90DF90CF90BF90AF909F908F907F90AD
:100B10006F905F904F903F902F9008954F925F920B
:100B20006F927F928F929F92AF92BF92CF92DF92FD
:100B3000EF92FF92CF93DF93CDB7DEB72A970FB630
:100B4000F894DEBF0FBECDBF0E94720180902901D4
:100B500090902A01A0902B01B0902C012CE2921AC7
:100B600021E0A20AB10842E050E0BE016F5F7F4F72
:100B70008DEF0E946500C980DA80DC24CD24DC245E
:100B8000F12CE12C9EE0CC0CDD1CEE1CFF1C9A9598
:100B9000D1F78091240190912501092E000CAA0B18
:100BA000BB0B24E1880F991FAA1FBB1F2A95D1F701
:100BB000C81AD90AEA0AFB0AA0912601B0912701B6
:100BC000A50194010E942D0AC61AD70AE80AF90A5B
:100BD000D701C601905CAF4FBF4FC12C30E8D32E78
:100BE000E12CF12CBC01CD01A70196010E94030A62
:100BF0002F83388749875A87A0912301B0E0A50148
:100C000094010E94220A20E038E040E050E00E9477
:100C1000030A29013A0190E8590E611C711CA09148
:100C200028010A2E000CBB0BA50194010E942D0A7D
:100C3000812C44E0942EA12CB12CA50194010E949A
:100C4000030A2B833C834D835E83A30192016B8156
:100C50007C818D819E810E94F309A50194010E94EF
:100C6000030A405E5F4FA0912101B09122010E94D2
:100C70002D0A9B01AC01305E4F4F5F4FCA01B90195
:100C800020E030E440E050E00E94030A6F81788564
:100C900089859A850E94F3096B837C838D839E836B
:100CA000A70196010E94030ACA01B9010E94F30933
:100CB0009B01AC0167E055954795379527956A9557
:100CC000D1F7A0912001B0E00E94220A20E130E09B
:100CD00040E050E00E94030A8B819C81AD81BE817F
:100CE000821B930BA40BB50BB7FF03C080E090E011
:100CF000DC0181309105A10539E1B30724F080E0E2
:100D000090E0A0E0B9E19C01AD018CE055954795DC
:100D1000379527958A95D1F7CA01B9012A960FB65A
:100D2000F894DEBF0FBECDBFDF91CF91FF90EF9063
:100D3000DF90CF90BF90AF909F908F907F906F90FB
:100D40005F904F900895CF93DF93EC01892B91F042
:100D50000E947201688379838A839B830E94500278
:100D60006C837D838E839F830E948E05688779873D
:100D70008A879B87DF91CF910895CF93DF93D82FF8
:100D800084EF0E945300C82F0E94D3098EEE0E9468
:100D9000EC0984EF0E94EC098C2F8C7F8D2B0E9434
:100DA000EC09DF91CF910C94D809DC01CB01FB0158
:100DB00030E020E04D915D916D917C911397022E72
:100DC00004C075956795579547950A94D2F7419356
:100DD000285F3F4F2032310569F7FC01349630E03F
:100DE00020E014964D915D916D917C911797022EA4
:100DF00004C076956795579547950A94D2F7419325
:100E0000285F3F4F2032310561F7FC01389690E0B2
:100E100080E018964D915D916D917C911B97082E05
:100E200004C076956795579547950A94D2F74193F4
:100E300008968032910569F70895EDE2F1E086E5C4
:100E4000DF011D928A95E9F70895CF93DF93CDE2F4
:100E5000D1E09FE7988393E4998391E09A838B8311
:100E600061E070E080E391E00E9446086A8170E0F2
:100E7000FB01E35DFE4F838394838EEF85836A5F7E
:100E80007F4FCE010E945F09DF91CF910C941D0727
:100E9000AF92BF92CF92DF92EF92FF920F931F9388
:100EA000CF93DF936C01EB01892B09F1209709F4B3
:100EB00086C03DE2A32E31E0B32E10E000E0EE2428
:100EC000E394F12C0E94EE089C012F3F3207D1F3EE
:100ED00002301105C9F00330110501F1013011058F
:100EE00049F02F37310509F44DC00E941D07D0E0AD
:100EF000C0E065C02434310509F447C00E941D07D5
:100F000084E00E942507F3CF2135310524F00E94AB
:100F10001D0783E0F6CF03E010E003C02E3F31054C
:100F200081F0F5012083FFEFEF1AFF0A8FEFA81A77
:100F3000B80A97E5E916F10429F626E5E22EF12C28
:100F400003C08EEFF5018083F701E35DFE4F7F0163
:100F500033978081F2E0EF1AF108F701008110E089
:100F6000102F0027080F111D60912F0170E080E302
:100F700091E00E9446080817190751F00E941D07CA
:100F800082E0BFCF2FE701E0C7CF24E402E0C4CF67
:100F900080912F0190E08C179D0708F4EC01AE01C1
:100FA00060E371E0C6010E94F50B0E941D0767E037
:100FB00070E080E091E00E945F090E941D07CE0171
:100FC000DF91CF911F910F91FF90EF90DF90CF9025
:100FD000BF90AF9008950F931F93CF93DF9300D0EE
:100FE00000D0CDB7DEB79C018B01892B09F443C03B
:100FF0006115710509F43FC0CB010696873591054F
:10100000D0F58FE780932D0184E480932E016093C7
:101010002F01AB01B90180E391E00E94F50BB8010B
:10102000772780E391E00E94460860912F0170E0ED
:10103000FB01E35DFE4F838394838EEF85836A5FBC
:101040007F4F8DE291E00E945F091A8219821C8213
:101050001B8264E070E0CE0101960E9404090E94A8
:1010600079090F900F900F900F90DF91CF911F9102
:101070000F910C941D070F900F900F900F90DF9120
:10108000CF911F910F9108950C94D9089C01AB0149
:101090000097C9F0480F591F90E080E024173507EA
:1010A00009F40895F90161919F01962768E0FC0118
:1010B000880F991FF7FF04C0F1E28F27F0E19F2707
:1010C0006150A9F7EBCF90E080E00895CDB7DEB78F
:1010D00069970FB6F894DEBF0FBECDBF0E944408DB
:1010E0000E94D80078941AE07E018FE0E80EF11C8F
:1010F000198E1E861D86D701E12F1D92EA95E9F70C
:1011000061E070E0CE0149960E944807892BC1F347
:10111000898D843071F180F48230B1F0833041F7F1
:1011200081E00E94BD060E9472016D877E878F87D5
:10113000988B64E070E018C08530D1F681E00E94A1
:10114000BD060E948E05F1CF81E00E94BD06CE0152
:1011500001960E94A306BE01635F7F4FCE010196F8
:101160000E94D5066CE070E0CE010D960E94EB0760
:10117000BFCF81E00E94BD060E945002D6CF809171
:10118000830190E0FC01E957FE4F208101968F71A9
:101190009927809383012093C600909184018091C8
:1011A0008301981305C08091C1008F7D8093C10099
:1011B00008951092C5008CE08093C400E0ECF0E04C
:1011C000808182608083E1ECF0E088E9808386E0C2
:1011D0008093C20080818F7D808308952091850156
:1011E00080918601821769F030E0F901E955FE4FE0
:1011F00080812F5F3F4F2F7133272093850190E02F
:1012000008958FEF9FEF0895EF92FF920F931F9332
:10121000CF93DF938B01EC017C01E60EF71EEC16F9
:10122000FD0641F4C801DF91CF911F910F91FF900E
:10123000EF9008950E94EE089C012F3F3207D1F3F2
:101240002993EDCFEF92FF920F931F93CF93DF93EC
:10125000F82EC091840180918301C8130DC0809144
:10126000C00085FF09C0F092C600DF91CF911F91A9
:101270000F91FF90EF900895D0E08E010F5F1F4F08
:101280000F711127E02E809183018E1571F0C957DF
:10129000DE4FF8829FB7F894009384018091C100DB
:1012A00080628093C1009FBFE0CF0FB607FCEDCFF7
:1012B0009091C00095FFE9CF0E94BF08E4CFEF9264
:1012C000FF920F931F93CF93DF938B01EC017C016F
:1012D000E60EF71ECE15DF0541F4C801DF91CF9170
:1012E0001F910F91FF90EF90089589910E9422091C
:1012F000F1CF8FB7F89410928601109285018FBFBD
:1013000008952F932FB72F938F939F93EF93FF936E
:101310009091C600E091860181E08E0F8F7120913F
:101320008501281731F0F0E0E955FE4F9083809356
:101330008601FF91EF919F918F912F912FBF2F9158
:1013400018951F920F920FB60F9211242F933F936F
:101350004F935F936F937F938F939F93AF93BF93BD
:10136000EF93FF930E94BF08FF91EF91BF91AF9160
:101370009F918F917F916F915F914F913F912F91AD
:101380000F900FBE0F901F90189580E28093B800C9
:10139000ECEBF0E080818460808308958091BC0054
:1013A00087FFFCCF089584EA8093BC000C94CE099B
:1013B00084E98093BC00089584EC8093BC000E9473
:1013C000CE098091BB00089584E88093BC000E9400
:1013D000CE098091BB0008958093BB0084E8809380
:1013E000BC000C94CE09DB018F939F930E94220ACC
:1013F000BF91AF91A29F800D911DA39F900DB29FB1
:10140000900D11240895052E97FB1EF400940E9460
:101410001A0A57FD07D00E94C40B07FC03D04EF4F4
:101420000C941A0A50954095309521953F4F4F4F97
:101430005F4F089590958095709561957F4F8F4F80
:101440009F4F08950E94E60BA59F900DB49F900DAD
:10145000A49F800D911D11240895B7FF0C94220ABA
:101460000E94220A821B930B0895DF93CF931F9350
:101470000F939A9DF02D219FF00D8B9DF00D8A9D6D
:10148000E02DF10D039FF00D029FE00DF11D4E9D2B
:10149000E00DF11D5E9DF00D4F9DF00D7F936F935C
:1014A000BF92AF925F934F93D5010E94E60B8B01E1
:1014B000AC01D7010E94E60BEB01E80FF91FD60142
:1014C0000E94840A2F913F91D6010E94E60BC60F1D
:1014D000D71FE81FF91FAF91BF910E94840A2F9177
:1014E0003F910E94E60BC60FD71FE81FF91FD601D8
:1014F0000E94E60BE60FF71F9801BE01CF010F9186
:101500001F91CF91DF9108950E94E60B460F571F60
:10151000C81FD91F08F431960895689401C0E89453
:10152000F92FF12B12F00C94C10AA0E0B0E0EBE926
:10153000FAE00C94330B092E059422F40E941D0B43
:10154000112392F4F0E80F26FFEFE094F094009559
:101550001095B094C094D094A194BF0ACF0ADF0A2A
:10156000EF0AFF0A0F0B1F0B0E94CC0A07FC0E9418
:101570001D0BCDB7DEB7ECE00C944F0B689401C0A7
:10158000E8948F929F92CF93DF930E94CC0ADF91D1
:10159000CF919F908F90089588249924F401E401BD
:1015A000B0E49F93AA279A158B049C04ED05FE05D1
:1015B000CF05D007A10798F4AD2FDC2FCF2FFE2F3A
:1015C000E92D982C892E982F872F762F652F542F51
:1015D000432F322F2227B85031F7BF9127C01B2E3F
:1015E000BF91BB27220F331F441F551F661F771F54
:1015F000881F991F881C991CEE1FFF1FCC1FDD1F21
:10160000AA1FBB1F8A149B04EC05FD05CE05DF0550
:10161000A007B10748F08A189B08EC09FD09CE091C
:10162000DF09A00BB10B21601A94E1F62EF49401AE
:10163000AF01BE01CD01000C0895609570958095B5
:10164000909530954095509521953F4F4F4F5F4F66
:101650006F4F7F4F8F4F9F4F08952F923F924F9222
:101660005F926F927F928F929F92AF92BF92CF9232
:10167000DF92EF92FF920F931F93CF93DF93CDB73B
:10168000DEB7CA1BDB0B0FB6F894DEBF0FBECDBFB3
:1016900009942A88398848885F846E847D848C8484
:1016A0009B84AA84B984C884DF80EE80FD800C818D
:1016B0001B81AA81B981CE0FD11D0FB6F894DEBF70
:1016C0000FBECDBFED010895002E083090F0982F89
:1016D000872F762F652F542F432F322F2227085024
:1016E000F4CF220F331F441F551F661F771F881F1B
:1016F000991F0A95B2F7002D089597FD1094002EBA
:10170000083098F00850232F342F452F562F672F7D
:10171000782F892F912DF4CF1594979587957795EC
:10172000679557954795379527950A95AAF71124F8
:10173000002D08952A0D3B1D4C1D5D1D6E1D7F1D46
:10174000801F911F08950024A7FD00942A0F301DCB
:10175000401D501D601D701D801D901D08952A198B
:101760003B094C095D096E097F09800B910B0895B7
:101770000024A7FD00942A17300540055005600598
:101780007005800590050895A1E21A2EAA1BBB1BC7
:10179000FD010DC0AA1FBB1FEE1FFF1FA217B3073D
:1017A000E407F50720F0A21BB30BE40BF50B661F53
:1017B000771F881F991F1A9469F760957095809517
:1017C00090959B01AC01BD01CF010895A29FB0018E
:1017D000B39FC001A39F700D811D1124911DB29F65
:1017E000700D811D1124911D0895FB01DC0102C0C3
:1017F00001900D9241505040D8F70895F894FFCFD2
:081800007F4301012110FE00ED
:00000001FF
